{
  "contractName": "DCWallet",
  "abi": [
    {
      "constant": true,
      "inputs": [],
      "name": "timedelta",
      "outputs": [
        {
          "name": "",
          "type": "uint256"
        }
      ],
      "payable": false,
      "stateMutability": "view",
      "type": "function"
    },
    {
      "constant": true,
      "inputs": [],
      "name": "word",
      "outputs": [
        {
          "name": "",
          "type": "string"
        }
      ],
      "payable": false,
      "stateMutability": "view",
      "type": "function"
    },
    {
      "constant": true,
      "inputs": [],
      "name": "recoveryAddress",
      "outputs": [
        {
          "name": "",
          "type": "address"
        }
      ],
      "payable": false,
      "stateMutability": "view",
      "type": "function"
    },
    {
      "constant": false,
      "inputs": [],
      "name": "renounceOwnership",
      "outputs": [],
      "payable": false,
      "stateMutability": "nonpayable",
      "type": "function"
    },
    {
      "constant": true,
      "inputs": [],
      "name": "owner",
      "outputs": [
        {
          "name": "",
          "type": "address"
        }
      ],
      "payable": false,
      "stateMutability": "view",
      "type": "function"
    },
    {
      "constant": true,
      "inputs": [],
      "name": "isOwner",
      "outputs": [
        {
          "name": "",
          "type": "bool"
        }
      ],
      "payable": false,
      "stateMutability": "view",
      "type": "function"
    },
    {
      "constant": true,
      "inputs": [],
      "name": "lastCall",
      "outputs": [
        {
          "name": "",
          "type": "uint256"
        }
      ],
      "payable": false,
      "stateMutability": "view",
      "type": "function"
    },
    {
      "constant": true,
      "inputs": [
        {
          "name": "",
          "type": "uint256"
        }
      ],
      "name": "recoverableAssets",
      "outputs": [
        {
          "name": "",
          "type": "address"
        }
      ],
      "payable": false,
      "stateMutability": "view",
      "type": "function"
    },
    {
      "constant": false,
      "inputs": [
        {
          "name": "newOwner",
          "type": "address"
        }
      ],
      "name": "transferOwnership",
      "outputs": [],
      "payable": false,
      "stateMutability": "nonpayable",
      "type": "function"
    },
    {
      "inputs": [
        {
          "name": "assets",
          "type": "address[]"
        }
      ],
      "payable": false,
      "stateMutability": "nonpayable",
      "type": "constructor"
    },
    {
      "payable": true,
      "stateMutability": "payable",
      "type": "fallback"
    },
    {
      "anonymous": false,
      "inputs": [
        {
          "indexed": false,
          "name": "destination",
          "type": "address"
        },
        {
          "indexed": false,
          "name": "value",
          "type": "uint256"
        },
        {
          "indexed": false,
          "name": "data",
          "type": "bytes"
        }
      ],
      "name": "Execution",
      "type": "event"
    },
    {
      "anonymous": false,
      "inputs": [
        {
          "indexed": false,
          "name": "destination",
          "type": "address"
        },
        {
          "indexed": false,
          "name": "value",
          "type": "uint256"
        },
        {
          "indexed": false,
          "name": "data",
          "type": "bytes"
        }
      ],
      "name": "ExecutionFailure",
      "type": "event"
    },
    {
      "anonymous": false,
      "inputs": [
        {
          "indexed": false,
          "name": "recoveryAddress",
          "type": "address"
        },
        {
          "indexed": false,
          "name": "timedelta",
          "type": "uint256"
        }
      ],
      "name": "NewRecoveryAddress",
      "type": "event"
    },
    {
      "anonymous": false,
      "inputs": [
        {
          "indexed": true,
          "name": "previousOwner",
          "type": "address"
        },
        {
          "indexed": true,
          "name": "newOwner",
          "type": "address"
        }
      ],
      "name": "OwnershipTransferred",
      "type": "event"
    },
    {
      "constant": true,
      "inputs": [],
      "name": "timeTillDeadline",
      "outputs": [
        {
          "name": "",
          "type": "uint256"
        }
      ],
      "payable": false,
      "stateMutability": "view",
      "type": "function"
    },
    {
      "constant": true,
      "inputs": [],
      "name": "isRecoverable",
      "outputs": [
        {
          "name": "",
          "type": "bool"
        }
      ],
      "payable": false,
      "stateMutability": "view",
      "type": "function"
    },
    {
      "constant": false,
      "inputs": [
        {
          "name": "assets",
          "type": "address[]"
        }
      ],
      "name": "setRecoverableAssets",
      "outputs": [],
      "payable": false,
      "stateMutability": "nonpayable",
      "type": "function"
    },
    {
      "constant": false,
      "inputs": [
        {
          "name": "to",
          "type": "address"
        },
        {
          "name": "value",
          "type": "uint256"
        }
      ],
      "name": "sendEth",
      "outputs": [],
      "payable": true,
      "stateMutability": "payable",
      "type": "function"
    },
    {
      "constant": false,
      "inputs": [],
      "name": "iAmAlive",
      "outputs": [
        {
          "name": "",
          "type": "bool"
        }
      ],
      "payable": false,
      "stateMutability": "nonpayable",
      "type": "function"
    },
    {
      "constant": false,
      "inputs": [
        {
          "name": "_recoveryAddress",
          "type": "address"
        },
        {
          "name": "_timedelta",
          "type": "uint256"
        }
      ],
      "name": "setRecoveryAddress",
      "outputs": [],
      "payable": false,
      "stateMutability": "nonpayable",
      "type": "function"
    },
    {
      "constant": false,
      "inputs": [],
      "name": "recoverFunds",
      "outputs": [],
      "payable": false,
      "stateMutability": "nonpayable",
      "type": "function"
    },
    {
      "constant": false,
      "inputs": [
        {
          "name": "destination",
          "type": "address"
        },
        {
          "name": "value",
          "type": "uint256"
        },
        {
          "name": "data",
          "type": "bytes"
        }
      ],
      "name": "executeTransaction",
      "outputs": [
        {
          "name": "",
          "type": "bool"
        }
      ],
      "payable": false,
      "stateMutability": "nonpayable",
      "type": "function"
    }
  ],
  "bytecode": "0x60806040523480156200001157600080fd5b50604051620019e3380380620019e3833981018060405260208110156200003757600080fd5b8101908080516401000000008111156200005057600080fd5b828101905060208101848111156200006757600080fd5b81518560208202830111640100000000821117156200008557600080fd5b50509291905050506200009d6200017060201b60201c565b6000806101000a81548173ffffffffffffffffffffffffffffffffffffffff021916908373ffffffffffffffffffffffffffffffffffffffff1602179055506000809054906101000a900473ffffffffffffffffffffffffffffffffffffffff1673ffffffffffffffffffffffffffffffffffffffff16600073ffffffffffffffffffffffffffffffffffffffff167f8be0079c531659141344cd1fd0a4f28419497f9722a3daafe3b4186f6b6457e060405160405180910390a362000169816200017860201b60201c565b5062000303565b600033905090565b620001886200029d60201b60201c565b620001fb576040517f08c379a00000000000000000000000000000000000000000000000000000000081526004018080602001828103825260208152602001807f4f776e61626c653a2063616c6c6572206973206e6f7420746865206f776e657281525060200191505060405180910390fd5b60008090505b81518160ff16101562000299576004828260ff16815181106200022057fe5b602002602001015190806001815401808255809150509060018203906000526020600020016000909192909190916101000a81548173ffffffffffffffffffffffffffffffffffffffff021916908373ffffffffffffffffffffffffffffffffffffffff16021790555050808060010191505062000201565b5050565b60008060009054906101000a900473ffffffffffffffffffffffffffffffffffffffff1673ffffffffffffffffffffffffffffffffffffffff16620002e76200017060201b60201c565b73ffffffffffffffffffffffffffffffffffffffff1614905090565b6116d080620003136000396000f3fe6080604052600436106100fe5760003560e01c80638279018e11610095578063ca1d3e5811610064578063ca1d3e5814610569578063d724114414610598578063da516aa9146105c7578063dd67d285146105f2578063f2fde38b1461066d576100fe565b80638279018e146104a15780638da5cb5b146104cc5780638f32d59b14610523578063b79550be14610552576100fe565b806349dcbc5e116100d157806349dcbc5e1461038a5780636e0aa30d146103d8578063710eb26c14610433578063715018a61461048a576100fe565b806328dede7a146101005780632f64d3861461012b5780633edd22e0146101bb5780633f579f4214610280575b005b34801561010c57600080fd5b506101156106be565b6040518082815260200191505060405180910390f35b34801561013757600080fd5b506101406106c4565b6040518080602001828103825283818151815260200191508051906020019080838360005b83811015610180578082015181840152602081019050610165565b50505050905090810190601f1680156101ad5780820380516001836020036101000a031916815260200191505b509250505060405180910390f35b3480156101c757600080fd5b5061027e600480360360208110156101de57600080fd5b81019080803590602001906401000000008111156101fb57600080fd5b82018360208201111561020d57600080fd5b8035906020019184602083028401116401000000008311171561022f57600080fd5b919080806020026020016040519081016040528093929190818152602001838360200280828437600081840152601f19601f820116905080830192505050505050509192919290505050610762565b005b34801561028c57600080fd5b50610370600480360360608110156102a357600080fd5b81019080803573ffffffffffffffffffffffffffffffffffffffff16906020019092919080359060200190929190803590602001906401000000008111156102ea57600080fd5b8201836020820111156102fc57600080fd5b8035906020019184600183028401116401000000008311171561031e57600080fd5b91908080601f016020809104026020016040519081016040528093929190818152602001838380828437600081840152601f19601f82011690508083019250505050505050919291929050505061087b565b604051808215151515815260200191505060405180910390f35b6103d6600480360360408110156103a057600080fd5b81019080803573ffffffffffffffffffffffffffffffffffffffff16906020019092919080359060200190929190505050610ae6565b005b3480156103e457600080fd5b50610431600480360360408110156103fb57600080fd5b81019080803573ffffffffffffffffffffffffffffffffffffffff16906020019092919080359060200190929190505050610bb2565b005b34801561043f57600080fd5b50610448610ded565b604051808273ffffffffffffffffffffffffffffffffffffffff1673ffffffffffffffffffffffffffffffffffffffff16815260200191505060405180910390f35b34801561049657600080fd5b5061049f610e13565b005b3480156104ad57600080fd5b506104b6610f4c565b6040518082815260200191505060405180910390f35b3480156104d857600080fd5b506104e1610f74565b604051808273ffffffffffffffffffffffffffffffffffffffff1673ffffffffffffffffffffffffffffffffffffffff16815260200191505060405180910390f35b34801561052f57600080fd5b50610538610f9d565b604051808215151515815260200191505060405180910390f35b34801561055e57600080fd5b50610567610ffb565b005b34801561057557600080fd5b5061057e611314565b604051808215151515815260200191505060405180910390f35b3480156105a457600080fd5b506105ad61139e565b604051808215151515815260200191505060405180910390f35b3480156105d357600080fd5b506105dc6113af565b6040518082815260200191505060405180910390f35b3480156105fe57600080fd5b5061062b6004803603602081101561061557600080fd5b81019080803590602001909291905050506113b5565b604051808273ffffffffffffffffffffffffffffffffffffffff1673ffffffffffffffffffffffffffffffffffffffff16815260200191505060405180910390f35b34801561067957600080fd5b506106bc6004803603602081101561069057600080fd5b81019080803573ffffffffffffffffffffffffffffffffffffffff1690602001909291905050506113f1565b005b60025481565b60018054600181600116156101000203166002900480601f01602080910402602001604051908101604052809291908181526020018280546001816001161561010002031660029004801561075a5780601f1061072f5761010080835404028352916020019161075a565b820191906000526020600020905b81548152906001019060200180831161073d57829003601f168201915b505050505081565b61076a610f9d565b6107dc576040517f08c379a00000000000000000000000000000000000000000000000000000000081526004018080602001828103825260208152602001807f4f776e61626c653a2063616c6c6572206973206e6f7420746865206f776e657281525060200191505060405180910390fd5b60008090505b81518160ff161015610877576004828260ff16815181106107ff57fe5b602002602001015190806001815401808255809150509060018203906000526020600020016000909192909190916101000a81548173ffffffffffffffffffffffffffffffffffffffff021916908373ffffffffffffffffffffffffffffffffffffffff1602179055505080806001019150506107e2565b5050565b60004260038190555061088c610f9d565b6108fe576040517f08c379a00000000000000000000000000000000000000000000000000000000081526004018080602001828103825260208152602001807f4f776e61626c653a2063616c6c6572206973206e6f7420746865206f776e657281525060200191505060405180910390fd5b60008251905060006040516020850160008285838a8c6187965a03f1925050508015610a01577f39f46e1dedea184144e3feaf4e595d78345d9a9d8b43da87912efbe4df3c8a31868686604051808473ffffffffffffffffffffffffffffffffffffffff1673ffffffffffffffffffffffffffffffffffffffff16815260200183815260200180602001828103825283818151815260200191508051906020019080838360005b838110156109c05780820151818401526020810190506109a5565b50505050905090810190601f1680156109ed5780820380516001836020036101000a031916815260200191505b5094505050505060405180910390a1610ada565b7f8d1ecf04e6462600e647fec505da5fb931c5d7e2c8171df5f6629beab50ec07f868686604051808473ffffffffffffffffffffffffffffffffffffffff1673ffffffffffffffffffffffffffffffffffffffff16815260200183815260200180602001828103825283818151815260200191508051906020019080838360005b83811015610a9d578082015181840152602081019050610a82565b50505050905090810190601f168015610aca5780820380516001836020036101000a031916815260200191505b5094505050505060405180910390a15b80925050509392505050565b42600381905550610af5610f9d565b610b67576040517f08c379a00000000000000000000000000000000000000000000000000000000081526004018080602001828103825260208152602001807f4f776e61626c653a2063616c6c6572206973206e6f7420746865206f776e657281525060200191505060405180910390fd5b8173ffffffffffffffffffffffffffffffffffffffff166108fc829081150290604051600060405180830381858888f19350505050158015610bad573d6000803e3d6000fd5b505050565b42600381905550610bc1610f9d565b610c33576040517f08c379a00000000000000000000000000000000000000000000000000000000081526004018080602001828103825260208152602001807f4f776e61626c653a2063616c6c6572206973206e6f7420746865206f776e657281525060200191505060405180910390fd5b600073ffffffffffffffffffffffffffffffffffffffff16600560009054906101000a900473ffffffffffffffffffffffffffffffffffffffff1673ffffffffffffffffffffffffffffffffffffffff161415610cdb576040517f08c379a000000000000000000000000000000000000000000000000000000000815260040180806020018281038252604681526020018061165f6046913960600191505060405180910390fd5b600060025411610d36576040517f08c379a00000000000000000000000000000000000000000000000000000000081526004018080602001828103825260428152602001806115c46042913960600191505060405180910390fd5b81600560006101000a81548173ffffffffffffffffffffffffffffffffffffffff021916908373ffffffffffffffffffffffffffffffffffffffff160217905550806002819055507f8e7e07164e47f39ab18231583961a0183b6793ced0fe014567517d2032b530c38282604051808373ffffffffffffffffffffffffffffffffffffffff1673ffffffffffffffffffffffffffffffffffffffff1681526020018281526020019250505060405180910390a15050565b600560009054906101000a900473ffffffffffffffffffffffffffffffffffffffff1681565b610e1b610f9d565b610e8d576040517f08c379a00000000000000000000000000000000000000000000000000000000081526004018080602001828103825260208152602001807f4f776e61626c653a2063616c6c6572206973206e6f7420746865206f776e657281525060200191505060405180910390fd5b600073ffffffffffffffffffffffffffffffffffffffff166000809054906101000a900473ffffffffffffffffffffffffffffffffffffffff1673ffffffffffffffffffffffffffffffffffffffff167f8be0079c531659141344cd1fd0a4f28419497f9722a3daafe3b4186f6b6457e060405160405180910390a360008060006101000a81548173ffffffffffffffffffffffffffffffffffffffff021916908373ffffffffffffffffffffffffffffffffffffffff160217905550565b600060025460035401421015610f6c574260025460035401039050610f71565b600090505b90565b60008060009054906101000a900473ffffffffffffffffffffffffffffffffffffffff16905090565b60008060009054906101000a900473ffffffffffffffffffffffffffffffffffffffff1673ffffffffffffffffffffffffffffffffffffffff16610fdf611477565b73ffffffffffffffffffffffffffffffffffffffff1614905090565b61100361139e565b611058576040517f08c379a000000000000000000000000000000000000000000000000000000000815260040180806020018281038252603381526020018061162c6033913960400191505060405180910390fd5b60008090505b6004805490508160ff16101561129157600060048260ff168154811061108057fe5b9060005260206000200160009054906101000a900473ffffffffffffffffffffffffffffffffffffffff16905060048260ff16815481106110bd57fe5b9060005260206000200160009054906101000a900473ffffffffffffffffffffffffffffffffffffffff1673ffffffffffffffffffffffffffffffffffffffff1663a9059cbb600560009054906101000a900473ffffffffffffffffffffffffffffffffffffffff168373ffffffffffffffffffffffffffffffffffffffff166370a08231306040518263ffffffff1660e01b8152600401808273ffffffffffffffffffffffffffffffffffffffff1673ffffffffffffffffffffffffffffffffffffffff16815260200191505060206040518083038186803b1580156111a357600080fd5b505afa1580156111b7573d6000803e3d6000fd5b505050506040513d60208110156111cd57600080fd5b81019080805190602001909291905050506040518363ffffffff1660e01b8152600401808373ffffffffffffffffffffffffffffffffffffffff1673ffffffffffffffffffffffffffffffffffffffff16815260200182815260200192505050602060405180830381600087803b15801561124757600080fd5b505af115801561125b573d6000803e3d6000fd5b505050506040513d602081101561127157600080fd5b81019080805190602001909291905050505050808060010191505061105e565b50600560009054906101000a900473ffffffffffffffffffffffffffffffffffffffff1673ffffffffffffffffffffffffffffffffffffffff166108fc3073ffffffffffffffffffffffffffffffffffffffff16319081150290604051600060405180830381858888f19350505050158015611311573d6000803e3d6000fd5b50565b600042600381905550611325610f9d565b611397576040517f08c379a00000000000000000000000000000000000000000000000000000000081526004018080602001828103825260208152602001807f4f776e61626c653a2063616c6c6572206973206e6f7420746865206f776e657281525060200191505060405180910390fd5b6001905090565b600060025460035401421015905090565b60035481565b600481815481106113c257fe5b906000526020600020016000915054906101000a900473ffffffffffffffffffffffffffffffffffffffff1681565b6113f9610f9d565b61146b576040517f08c379a00000000000000000000000000000000000000000000000000000000081526004018080602001828103825260208152602001807f4f776e61626c653a2063616c6c6572206973206e6f7420746865206f776e657281525060200191505060405180910390fd5b6114748161147f565b50565b600033905090565b600073ffffffffffffffffffffffffffffffffffffffff168173ffffffffffffffffffffffffffffffffffffffff161415611505576040517f08c379a00000000000000000000000000000000000000000000000000000000081526004018080602001828103825260268152602001806116066026913960400191505060405180910390fd5b8073ffffffffffffffffffffffffffffffffffffffff166000809054906101000a900473ffffffffffffffffffffffffffffffffffffffff1673ffffffffffffffffffffffffffffffffffffffff167f8be0079c531659141344cd1fd0a4f28419497f9722a3daafe3b4186f6b6457e060405160405180910390a3806000806101000a81548173ffffffffffffffffffffffffffffffffffffffff021916908373ffffffffffffffffffffffffffffffffffffffff1602179055505056fe23444357616c6c6574207365745265636f766572794164647265737328293a2074696d6564656c7461206d75737420626520626967676572207468616e207a65726f4f776e61626c653a206e6577206f776e657220697320746865207a65726f206164647265737323444357616c6c6574207265636f76657246756e647328293a2057616c6c6574206973206e6f74207265636f76657261626c6523444357616c6c6574207365745265636f766572794164647265737328293a207265636f76657279416464726573732063616e6e6f74206265207a65726f2061646472657373a165627a7a723058209565c64f5b5be2a1ef7b591400e78cf3ccc63663374ab9b511ae1dd15f8df1a40029",
  "source": "pragma solidity >=0.5.0 <0.6.0;\n\nimport \"@openzeppelin/contracts/token/ERC20/IERC20.sol\";\nimport \"@openzeppelin/contracts/ownership/Ownable.sol\";\n\ncontract DCWallet is Ownable {\n    string public word;\n    uint public timedelta; // in seconds\n    uint public lastCall; // in seconds\n    address[] public recoverableAssets;\n    address payable public recoveryAddress;\n\n    event Execution(address destination, uint value, bytes data);\n    event ExecutionFailure(address destination, uint value, bytes data);\n    event NewRecoveryAddress(address recoveryAddress, uint timedelta);\n\n    constructor(address[] memory assets) public {\n        setRecoverableAssets(assets);\n    }\n\n    modifier updateLastCall() {\n        lastCall = now;\n        _;\n    }\n\n    function timeTillDeadline() public view returns (uint) {\n        if (now < lastCall + timedelta) {\n            return (lastCall + timedelta) - now;\n        }\n        return 0;\n    }\n\n    function isRecoverable() public view returns (bool) {\n        return now >= lastCall + timedelta;\n    }\n\n    function setRecoverableAssets(address[] memory assets) public onlyOwner {\n        for (uint8 i = 0; i < assets.length; i++) {\n            recoverableAssets.push(assets[i]);\n        }\n    }\n\n    function sendEth(address payable to, uint value) public payable updateLastCall onlyOwner {\n        to.transfer(value);\n    }\n\n    /// @dev extend the deadline for recovery\n    function iAmAlive() public updateLastCall onlyOwner returns (bool) {\n        return true;\n    }\n\n    function setRecoveryAddress(\n        address payable _recoveryAddress,\n        uint256 _timedelta\n    ) public updateLastCall onlyOwner {\n        require(recoveryAddress != address(0),\n            \"#DCWallet setRecoveryAddress(): recoveryAddress cannot be zero address\");\n        require(timedelta > 0,\n            \"#DCWallet setRecoveryAddress(): timedelta must be bigger than zero\");\n\n        recoveryAddress = _recoveryAddress;\n        timedelta = _timedelta;\n\n        emit NewRecoveryAddress(_recoveryAddress, _timedelta);\n    }\n\n    function recoverFunds() public {\n        require(isRecoverable(), \"#DCWallet recoverFunds(): Wallet is not recoverable\");\n\n        for (uint8 i = 0; i < recoverableAssets.length; i++) {\n            IERC20 erc20 = IERC20(recoverableAssets[i]);\n            IERC20(recoverableAssets[i])\n                .transfer(recoveryAddress, erc20.balanceOf(address(this)));\n        }\n\n        // send ETH\n        recoveryAddress.transfer(address(this).balance);\n    }\n\n    // Thank you Gnosis :)\n    function executeTransaction(address destination, uint value, bytes memory data)\n        public\n        updateLastCall\n        onlyOwner\n        returns (bool)\n    {\n        uint dataLength = data.length;\n        bool result;\n        assembly {\n            let x := mload(0x40)   // \"Allocate\" memory for output (0x40 is where \"free memory\" pointer is stored by convention)\n            let d := add(data, 32) // First 32 bytes are the padded length of data, so exclude that\n            result := call(\n                sub(gas, 34710),   // 34710 is the value that solidity is currently emitting\n                                   // It includes callGas (700) + callVeryLow (3, to pay for SUB) + callValueTransferGas (9000) +\n                                   // callNewAccountGas (25000, in case the destination address does not exist and needs creating)\n                destination,\n                value,\n                d,\n                dataLength,        // Size of the input (in bytes) - this is what fixes the padding problem\n                x,\n                0                  // Output is ignored, therefore the output size is zero\n            )\n        }\n        if (result)\n            emit Execution(destination, value, data);\n        else {\n            emit ExecutionFailure(destination, value, data);\n        }\n        return result;\n    }\n\n    function () external payable {}\n}\n",
  "sourcePath": "/Users/tom/www/ethwaterloo-contract-account-metamask-plugin/truffle/contracts/DCWallet.sol",
  "compiler": {
    "name": "solc",
    "version": "0.5.8+commit.23d335f2.Emscripten.clang"
  },
  "schemaVersion": "3.0.11",
  "updatedAt": "2019-11-10T02:00:51.890Z",
  "devdoc": {
    "methods": {
      "iAmAlive()": {
        "details": "extend the deadline for recovery"
      },
      "isOwner()": {
        "details": "Returns true if the caller is the current owner."
      },
      "owner()": {
        "details": "Returns the address of the current owner."
      },
      "renounceOwnership()": {
        "details": "Leaves the contract without owner. It will not be possible to call `onlyOwner` functions anymore. Can only be called by the current owner.     * NOTE: Renouncing ownership will leave the contract without an owner, thereby removing any functionality that is only available to the owner."
      },
      "transferOwnership(address)": {
        "details": "Transfers ownership of the contract to a new account (`newOwner`). Can only be called by the current owner."
      }
    }
  },
  "userdoc": {
    "methods": {}
  }
}