{
  "contractName": "Word",
  "abi": [
    {
      "constant": true,
      "inputs": [],
      "name": "word",
      "outputs": [
        {
          "name": "",
          "type": "string"
        }
      ],
      "payable": false,
      "stateMutability": "view",
      "type": "function"
    },
    {
      "inputs": [
        {
          "name": "value",
          "type": "string"
        }
      ],
      "payable": false,
      "stateMutability": "nonpayable",
      "type": "constructor"
    },
    {
      "payable": true,
      "stateMutability": "payable",
      "type": "fallback"
    },
    {
      "anonymous": false,
      "inputs": [
        {
          "indexed": true,
          "name": "author",
          "type": "address"
        },
        {
          "indexed": false,
          "name": "oldValue",
          "type": "string"
        },
        {
          "indexed": false,
          "name": "newValue",
          "type": "string"
        }
      ],
      "name": "WordChanged",
      "type": "event"
    },
    {
      "constant": true,
      "inputs": [],
      "name": "getValue",
      "outputs": [
        {
          "name": "",
          "type": "string"
        }
      ],
      "payable": false,
      "stateMutability": "view",
      "type": "function"
    },
    {
      "constant": false,
      "inputs": [
        {
          "name": "value",
          "type": "string"
        }
      ],
      "name": "setValue",
      "outputs": [],
      "payable": false,
      "stateMutability": "nonpayable",
      "type": "function"
    },
    {
      "constant": false,
      "inputs": [
        {
          "name": "to",
          "type": "address"
        },
        {
          "name": "value",
          "type": "uint256"
        }
      ],
      "name": "sendEth",
      "outputs": [],
      "payable": true,
      "stateMutability": "payable",
      "type": "function"
    }
  ],
  "bytecode": "0x608060405234801561001057600080fd5b506040516107823803806107828339810180604052602081101561003357600080fd5b81019080805164010000000081111561004b57600080fd5b8281019050602081018481111561006157600080fd5b815185600182028301116401000000008211171561007e57600080fd5b5050929190505050806000908051906020019061009c9291906101e1565b503373ffffffffffffffffffffffffffffffffffffffff167f9203cd8574bdc17c70d40a110473f743b0dcfaa6ccc664f994861f8205f52bcf6000836040518080602001806020018381038352858181546001816001161561010002031660029004815260200191508054600181600116156101000203166002900480156101655780601f1061013a57610100808354040283529160200191610165565b820191906000526020600020905b81548152906001019060200180831161014857829003601f168201915b5050838103825284818151815260200191508051906020019080838360005b8381101561019f578082015181840152602081019050610184565b50505050905090810190601f1680156101cc5780820380516001836020036101000a031916815260200191505b5094505050505060405180910390a250610286565b828054600181600116156101000203166002900490600052602060002090601f016020900481019282601f1061022257805160ff1916838001178555610250565b82800160010185558215610250579182015b8281111561024f578251825591602001919060010190610234565b5b50905061025d9190610261565b5090565b61028391905b8082111561027f576000816000905550600101610267565b5090565b90565b6104ed806102956000396000f3fe60806040526004361061003f5760003560e01c806320965255146100415780632f64d386146100d157806349dcbc5e1461016157806393a09352146101af575b005b34801561004d57600080fd5b50610056610277565b6040518080602001828103825283818151815260200191508051906020019080838360005b8381101561009657808201518184015260208101905061007b565b50505050905090810190601f1680156100c35780820380516001836020036101000a031916815260200191505b509250505060405180910390f35b3480156100dd57600080fd5b506100e6610319565b6040518080602001828103825283818151815260200191508051906020019080838360005b8381101561012657808201518184015260208101905061010b565b50505050905090810190601f1680156101535780820380516001836020036101000a031916815260200191505b509250505060405180910390f35b6101ad6004803603604081101561017757600080fd5b81019080803573ffffffffffffffffffffffffffffffffffffffff169060200190929190803590602001909291905050506103b7565b005b3480156101bb57600080fd5b50610275600480360360208110156101d257600080fd5b81019080803590602001906401000000008111156101ef57600080fd5b82018360208201111561020157600080fd5b8035906020019184600183028401116401000000008311171561022357600080fd5b91908080601f016020809104026020016040519081016040528093929190818152602001838380828437600081840152601f19601f820116905080830192505050505050509192919290505050610402565b005b606060008054600181600116156101000203166002900480601f01602080910402602001604051908101604052809291908181526020018280546001816001161561010002031660029004801561030f5780601f106102e45761010080835404028352916020019161030f565b820191906000526020600020905b8154815290600101906020018083116102f257829003601f168201915b5050505050905090565b60008054600181600116156101000203166002900480601f0160208091040260200160405190810160405280929190818152602001828054600181600116156101000203166002900480156103af5780601f10610384576101008083540402835291602001916103af565b820191906000526020600020905b81548152906001019060200180831161039257829003601f168201915b505050505081565b8173ffffffffffffffffffffffffffffffffffffffff166108fc829081150290604051600060405180830381858888f193505050501580156103fd573d6000803e3d6000fd5b505050565b806000908051906020019061041892919061041c565b5050565b828054600181600116156101000203166002900490600052602060002090601f016020900481019282601f1061045d57805160ff191683800117855561048b565b8280016001018555821561048b579182015b8281111561048a57825182559160200191906001019061046f565b5b509050610498919061049c565b5090565b6104be91905b808211156104ba5760008160009055506001016104a2565b5090565b9056fea165627a7a72305820b882c5d39718095864b6d89c1bcafe135497550be42242d753cadbf3da1459610029",
  "source": "pragma solidity >=0.5.0 <0.6.0;\n\ncontract Word {\n  string public word;\n\n  event WordChanged(address indexed author, string oldValue, string newValue);\n\n  constructor(string memory value) public {\n    word = value;\n    emit WordChanged(msg.sender, word, value);\n  }\n\n  function getValue() public view returns (string memory) {\n    return word;\n  }\n  function setValue(string memory value) public {\n    word = value;\n  }\n  function sendEth(address payable to, uint value) public payable {\n    to.transfer(value);\n  }\n  function () external payable {}\n}\n",
  "sourcePath": "/Users/tom/www/ethwaterloo-contract-account-metamask-plugin/truffle/contracts/Word.sol",
  "compiler": {
    "name": "solc",
    "version": "0.5.8+commit.23d335f2.Emscripten.clang"
  },
  "schemaVersion": "3.0.11",
  "updatedAt": "2019-11-09T13:53:05.501Z",
  "devdoc": {
    "methods": {}
  },
  "userdoc": {
    "methods": {}
  }
}