{
  "contractName": "DCWallet",
  "abi": [
    {
      "constant": true,
      "inputs": [],
      "name": "timedelta",
      "outputs": [
        {
          "name": "",
          "type": "uint256"
        }
      ],
      "payable": false,
      "stateMutability": "view",
      "type": "function"
    },
    {
      "constant": true,
      "inputs": [],
      "name": "word",
      "outputs": [
        {
          "name": "",
          "type": "string"
        }
      ],
      "payable": false,
      "stateMutability": "view",
      "type": "function"
    },
    {
      "constant": true,
      "inputs": [],
      "name": "lastCall",
      "outputs": [
        {
          "name": "",
          "type": "uint256"
        }
      ],
      "payable": false,
      "stateMutability": "view",
      "type": "function"
    },
    {
      "inputs": [
        {
          "name": "value",
          "type": "string"
        }
      ],
      "payable": false,
      "stateMutability": "nonpayable",
      "type": "constructor"
    },
    {
      "payable": true,
      "stateMutability": "payable",
      "type": "fallback"
    },
    {
      "anonymous": false,
      "inputs": [
        {
          "indexed": true,
          "name": "author",
          "type": "address"
        },
        {
          "indexed": false,
          "name": "oldValue",
          "type": "string"
        },
        {
          "indexed": false,
          "name": "newValue",
          "type": "string"
        }
      ],
      "name": "WordChanged",
      "type": "event"
    },
    {
      "anonymous": false,
      "inputs": [
        {
          "indexed": false,
          "name": "destination",
          "type": "address"
        },
        {
          "indexed": false,
          "name": "value",
          "type": "uint256"
        },
        {
          "indexed": false,
          "name": "data",
          "type": "bytes"
        }
      ],
      "name": "Execution",
      "type": "event"
    },
    {
      "anonymous": false,
      "inputs": [
        {
          "indexed": false,
          "name": "destination",
          "type": "address"
        },
        {
          "indexed": false,
          "name": "value",
          "type": "uint256"
        },
        {
          "indexed": false,
          "name": "data",
          "type": "bytes"
        }
      ],
      "name": "ExecutionFailure",
      "type": "event"
    },
    {
      "constant": true,
      "inputs": [],
      "name": "getValue",
      "outputs": [
        {
          "name": "",
          "type": "string"
        }
      ],
      "payable": false,
      "stateMutability": "view",
      "type": "function"
    },
    {
      "constant": false,
      "inputs": [
        {
          "name": "value",
          "type": "string"
        }
      ],
      "name": "setValue",
      "outputs": [],
      "payable": false,
      "stateMutability": "nonpayable",
      "type": "function"
    },
    {
      "constant": false,
      "inputs": [
        {
          "name": "to",
          "type": "address"
        },
        {
          "name": "value",
          "type": "uint256"
        }
      ],
      "name": "sendEth",
      "outputs": [],
      "payable": true,
      "stateMutability": "payable",
      "type": "function"
    },
    {
      "constant": true,
      "inputs": [],
      "name": "isRecoverable",
      "outputs": [
        {
          "name": "",
          "type": "bool"
        }
      ],
      "payable": false,
      "stateMutability": "view",
      "type": "function"
    },
    {
      "constant": true,
      "inputs": [],
      "name": "timeTillDeadline",
      "outputs": [
        {
          "name": "",
          "type": "uint256"
        }
      ],
      "payable": false,
      "stateMutability": "view",
      "type": "function"
    },
    {
      "constant": false,
      "inputs": [],
      "name": "iAmAlive",
      "outputs": [],
      "payable": false,
      "stateMutability": "nonpayable",
      "type": "function"
    },
    {
      "constant": false,
      "inputs": [
        {
          "name": "destination",
          "type": "address"
        },
        {
          "name": "value",
          "type": "uint256"
        },
        {
          "name": "data",
          "type": "bytes"
        }
      ],
      "name": "executeTransaction",
      "outputs": [
        {
          "name": "",
          "type": "bool"
        }
      ],
      "payable": false,
      "stateMutability": "nonpayable",
      "type": "function"
    }
  ],
  "bytecode": "0x608060405234801561001057600080fd5b50604051610bdc380380610bdc8339810180604052602081101561003357600080fd5b81019080805164010000000081111561004b57600080fd5b8281019050602081018481111561006157600080fd5b815185600182028301116401000000008211171561007e57600080fd5b5050929190505050806000908051906020019061009c9291906101e1565b503373ffffffffffffffffffffffffffffffffffffffff167f9203cd8574bdc17c70d40a110473f743b0dcfaa6ccc664f994861f8205f52bcf6000836040518080602001806020018381038352858181546001816001161561010002031660029004815260200191508054600181600116156101000203166002900480156101655780601f1061013a57610100808354040283529160200191610165565b820191906000526020600020905b81548152906001019060200180831161014857829003601f168201915b5050838103825284818151815260200191508051906020019080838360005b8381101561019f578082015181840152602081019050610184565b50505050905090810190601f1680156101cc5780820380516001836020036101000a031916815260200191505b5094505050505060405180910390a250610286565b828054600181600116156101000203166002900490600052602060002090601f016020900481019282601f1061022257805160ff1916838001178555610250565b82800160010185558215610250579182015b8281111561024f578251825591602001919060010190610234565b5b50905061025d9190610261565b5090565b61028391905b8082111561027f576000816000905550600101610267565b5090565b90565b610947806102956000396000f3fe6080604052600436106100915760003560e01c80638279018e116100595780638279018e1461033657806393a0935214610361578063ca1d3e5814610429578063d724114414610440578063da516aa91461046f57610091565b8063209652551461009357806328dede7a146101235780632f64d3861461014e5780633f579f42146101de57806349dcbc5e146102e8575b005b34801561009f57600080fd5b506100a861049a565b6040518080602001828103825283818151815260200191508051906020019080838360005b838110156100e85780820151818401526020810190506100cd565b50505050905090810190601f1680156101155780820380516001836020036101000a031916815260200191505b509250505060405180910390f35b34801561012f57600080fd5b5061013861053c565b6040518082815260200191505060405180910390f35b34801561015a57600080fd5b50610163610542565b6040518080602001828103825283818151815260200191508051906020019080838360005b838110156101a3578082015181840152602081019050610188565b50505050905090810190601f1680156101d05780820380516001836020036101000a031916815260200191505b509250505060405180910390f35b3480156101ea57600080fd5b506102ce6004803603606081101561020157600080fd5b81019080803573ffffffffffffffffffffffffffffffffffffffff169060200190929190803590602001909291908035906020019064010000000081111561024857600080fd5b82018360208201111561025a57600080fd5b8035906020019184600183028401116401000000008311171561027c57600080fd5b91908080601f016020809104026020016040519081016040528093929190818152602001838380828437600081840152601f19601f8201169050808301925050505050505091929192905050506105e0565b604051808215151515815260200191505060405180910390f35b610334600480360360408110156102fe57600080fd5b81019080803573ffffffffffffffffffffffffffffffffffffffff169060200190929190803590602001909291905050506107c9565b005b34801561034257600080fd5b5061034b610814565b6040518082815260200191505060405180910390f35b34801561036d57600080fd5b506104276004803603602081101561038457600080fd5b81019080803590602001906401000000008111156103a157600080fd5b8201836020820111156103b357600080fd5b803590602001918460018302840111640100000000831117156103d557600080fd5b91908080601f016020809104026020016040519081016040528093929190818152602001838380828437600081840152601f19601f82011690508083019250505050505050919291929050505061083c565b005b34801561043557600080fd5b5061043e610856565b005b34801561044c57600080fd5b5061045561085f565b604051808215151515815260200191505060405180910390f35b34801561047b57600080fd5b50610484610870565b6040518082815260200191505060405180910390f35b606060008054600181600116156101000203166002900480601f0160208091040260200160405190810160405280929190818152602001828054600181600116156101000203166002900480156105325780601f1061050757610100808354040283529160200191610532565b820191906000526020600020905b81548152906001019060200180831161051557829003601f168201915b5050505050905090565b60015481565b60008054600181600116156101000203166002900480601f0160208091040260200160405190810160405280929190818152602001828054600181600116156101000203166002900480156105d85780601f106105ad576101008083540402835291602001916105d8565b820191906000526020600020905b8154815290600101906020018083116105bb57829003601f168201915b505050505081565b6000808251905060006040516020850160008285838a8c6187965a03f19250505080156106e4577f39f46e1dedea184144e3feaf4e595d78345d9a9d8b43da87912efbe4df3c8a31868686604051808473ffffffffffffffffffffffffffffffffffffffff1673ffffffffffffffffffffffffffffffffffffffff16815260200183815260200180602001828103825283818151815260200191508051906020019080838360005b838110156106a3578082015181840152602081019050610688565b50505050905090810190601f1680156106d05780820380516001836020036101000a031916815260200191505b5094505050505060405180910390a16107bd565b7f8d1ecf04e6462600e647fec505da5fb931c5d7e2c8171df5f6629beab50ec07f868686604051808473ffffffffffffffffffffffffffffffffffffffff1673ffffffffffffffffffffffffffffffffffffffff16815260200183815260200180602001828103825283818151815260200191508051906020019080838360005b83811015610780578082015181840152602081019050610765565b50505050905090810190601f1680156107ad5780820380516001836020036101000a031916815260200191505b5094505050505060405180910390a15b80925050509392505050565b8173ffffffffffffffffffffffffffffffffffffffff166108fc829081150290604051600060405180830381858888f1935050505015801561080f573d6000803e3d6000fd5b505050565b600060015460025401421015610834574260015460025401039050610839565b600090505b90565b8060009080519060200190610852929190610876565b5050565b42600281905550565b600060015460025401421015905090565b60025481565b828054600181600116156101000203166002900490600052602060002090601f016020900481019282601f106108b757805160ff19168380011785556108e5565b828001600101855582156108e5579182015b828111156108e45782518255916020019190600101906108c9565b5b5090506108f291906108f6565b5090565b61091891905b808211156109145760008160009055506001016108fc565b5090565b9056fea165627a7a723058203515e77bce89575cd388a004144be173a6ffa8bd9a0f3f9cfe7a6c1e70964a360029",
  "source": "pragma solidity >=0.5.0 <0.6.0;\n\ncontract DCWallet {\n    string public word;\n    uint public timedelta; // in seconds\n    uint public lastCall; // in seconds\n\n    event WordChanged(address indexed author, string oldValue, string newValue);\n    event Execution(address destination, uint value, bytes data);\n    event ExecutionFailure(address destination, uint value, bytes data);\n\n    constructor(string memory value) public {\n        word = value;\n        emit WordChanged(msg.sender, word, value);\n    }\n\n    function getValue() public view returns (string memory) {\n        return word;\n    }\n\n    function setValue(string memory value) public {\n        word = value;\n    }\n\n    function sendEth(address payable to, uint value) public payable {\n        to.transfer(value);\n    }\n\n    function isRecoverable() public view returns (bool) {\n        return now >= lastCall + timedelta;\n    }\n\n    function timeTillDeadline() public view returns (uint) {\n        if (now < lastCall + timedelta) {\n            return (lastCall + timedelta) - now;\n        }\n        return 0;\n    }\n\n    function iAmAlive() public {\n        lastCall = now;\n    }\n\n    function executeTransaction(address destination, uint value, bytes memory data)\n        public\n        returns (bool)\n    {\n        uint dataLength = data.length;\n        bool result;\n        assembly {\n            let x := mload(0x40)   // \"Allocate\" memory for output (0x40 is where \"free memory\" pointer is stored by convention)\n            let d := add(data, 32) // First 32 bytes are the padded length of data, so exclude that\n            result := call(\n                sub(gas, 34710),   // 34710 is the value that solidity is currently emitting\n                                   // It includes callGas (700) + callVeryLow (3, to pay for SUB) + callValueTransferGas (9000) +\n                                   // callNewAccountGas (25000, in case the destination address does not exist and needs creating)\n                destination,\n                value,\n                d,\n                dataLength,        // Size of the input (in bytes) - this is what fixes the padding problem\n                x,\n                0                  // Output is ignored, therefore the output size is zero\n            )\n        }\n        if (result)\n            emit Execution(destination, value, data);\n        else {\n            emit ExecutionFailure(destination, value, data);\n        }\n        return result;\n    }\n\n    function () external payable {}\n}\n",
  "sourcePath": "/Users/tom/www/ethwaterloo-contract-account-metamask-plugin/truffle/contracts/DCWallet.sol",
  "compiler": {
    "name": "solc",
    "version": "0.5.8+commit.23d335f2.Emscripten.clang"
  },
  "schemaVersion": "3.0.11",
  "updatedAt": "2019-11-09T17:41:53.769Z",
  "devdoc": {
    "methods": {}
  },
  "userdoc": {
    "methods": {}
  }
}